:020000040800F2
:1000000050670020FD0300086949000859460008B0
:1000100065490008A71C0008A55100080000000061
:100020000000000000000000000000003D03000888
:100030000F1F000800000000990300089149000804
:100040001704000817040008170400081704000824
:100050001704000817040008170400081704000814
:100060001704000817040008170400081704000804
:1000700017040008170400081704000817040008F4
:10008000C51D0008D51D0008170400081704000846
:10009000AD1C0008BD1C0008170400081704000868
:1000A00017040008170400081704000817040008C4
:1000B00017040008170400081704000817040008B4
:1000C00017040008170400081704000817040008A4
:1000D00017040008170400088551000817040008D9
:1000E0001704000817040008170400081704000884
:1000F00017040008BD490008170400081704000889
:100100001704000817040008170400081704000863
:100110001704000817040008170400081704000853
:1001200017040008E51D000817040008170400085C
:100130001704000817040008170400081704000833
:100140001704000817040008170400081704000823
:1001500017040008F51D0008170400089551000851
:100160001704000817040008170400081704000803
:100170001704000817040008170400080000000016
:1001800017040008170400081704000817040008E3
:1001900017040008170400081704000817040008D3
:1001A00000000000000000001704000800F002F842
:1001B00000F0B4F80AA090E8000C82448344AAF14D
:1001C0000107DA4501D100F0A9F8AFF2090EBAE84B
:1001D0000F0013F0010F18BFFB1A43F0010318477B
:1001E00074910000949100000A444FF0000C10F844
:1001F000013B13F0070408BF10F8014B1D1108BFA5
:1002000010F8015B641E05D010F8016B641E01F844
:10021000016BF9D113F0080F1EBF10F8014BAD1C94
:100220000C1B09D16D1E58BF01F801CBFAD505E0B2
:1002300014F8016B01F8016B6D1EF9D59142D6D30C
:10024000704700000023002400250026103A28BF34
:1002500078C1FBD8520728BF30C148BF0B60704738
:100260006E2900F0F182702900F03B84662908F0C5
:100270002387652908F02087672908F01D876129F1
:10028000AFF3008003681B0A28BF41F08001692991
:1002900000F09E82642900F09B82752900F098820C
:1002A0006F2900F0C883782900F00784E92900F05D
:1002B0006383E42900F06083F52900F05D83EF2972
:1002C00000F0C583F82900F006840368DB0928BF25
:1002D00041F08001632900F0E287732900F0E7878D
:1002E000E32900F0F287F32900F0F7870020704738
:1002F0001FB508F0DCFE01F047F8040000200021E3
:1003000008F022FE401C60600020002108F006FE7C
:10031000E06000F0DDF91FBD10B510BD01F006F87A
:100320001146FFF7E5FF06F09FFD01F0E3F803B487
:10033000FFF7F2FF03BC01F0E7F800002C4B19684F
:100340000868B0E8F04F80F30988BFF36F8F4FF073
:10035000000080F311887047000000000848006822
:10036000006880F308884FF0000080F3148862B6BC
:1003700061B6BFF34F8FBFF36F8F00DF00BF00BFC9
:1003800008ED00E0DFF80C00016841F47001016045
:10039000704700BF88ED00E0EFF30980BFF36F8F77
:1003A000134B1A681EF0100F08BF20ED108A20E9C9
:1003B000F04F106009B44FF0500080F31188BFF384
:1003C0004F8FBFF36F8F07F0A5FE4FF0000080F353
:1003D000118809BC19680868B0E8F04F1EF0100FCA
:1003E00008BFB0EC108A80F30988BFF36F8F7047A5
:1003F000C0010020EFF305807047000009488047E6
:1004000009480047FEE7FEE7FEE7FEE7FEE7FEE7F6
:10041000FEE7FEE7FEE7FEE704480549054A064B0E
:1004200070470000A9490008AD0100085061002094
:1004300050670020506300205063002053EA020CF4
:1004400000F069802DE9F04B4FF00006002B1FBF34
:10045000B3FA83F503FA05F424FA05F65E4012BFF9
:100460001643B2FA82F502FA05F4C5F120051EBF63
:1004700022FA05FC44EA0C04203556EA044C4FEA03
:10048000144418BF641C4FF000084FF0000990425C
:1004900071EB030C39D3002919BFB1FA81F701FAC6
:1004A00007F6B0FA80F700FA07F6C7F120071EBF7B
:1004B00020FA07FC46EA0C062037B6FBF4FCA7EB53
:1004C0000507103F07F01F0BCBF120060CFA0BFBC2
:1004D0002CFA06F644BFB3460026202FA4BF5E4682
:1004E0004FF0000B5BEA060C08BF4FF0010B19EB55
:1004F0000B09ABFB027C48EB0608C01B06FB02CCD9
:100500000BFB03CC71EB0C01C1E70B4602464146E5
:100510004846BDE8F08B13B54FF000004FF00001E6
:10052000AFF30080BDE81C40704700007CB51D465D
:1005300016460C00009001D02044401E074B7B441F
:100540002A4669460190304600F097F905461CB1ED
:100550000020694600F0A4F928467CBD690300002C
:10056000032A40F2308010F0030C00F0158011F8DF
:10057000013BBCF1020F624498BF11F801CB00F8B7
:10058000013B38BF11F8013BA2F1040298BF00F80B
:1005900001CB38BF00F8013B11F0030300F070837A
:1005A000083AC0F0088051F8043B083A51F804CBEF
:1005B000A0E80810F5E7121D5CBF51F8043B40F8B5
:1005C000043BAFF30080D20724BF11F8013B11F8C0
:1005D00001CB48BF11F8012B24BF00F8013B00F804
:1005E00001CB48BF00F8012B704702F0FF0343EA3C
:1005F000032242EA024200F077BB4FF0000200B54E
:10060000134694469646203922BFA0E80C50A0E835
:100610000C50B1F12001BFF4F7AF090728BFA0E8E3
:100620000C5048BF0CC05DF804EB890028BF40F8AF
:10063000042B08BF704748BF20F8022B11F0804FF1
:1006400018BF00F8012B70474FF0013C50F8042B05
:1006500051F8043B9A4221D1A2EB0C03934313EAD5
:10066000CC1317D150F8042B51F8043B9A4215D102
:10067000A2EB0C03934313EACC130BD150F8042BD9
:1006800051F8043B9A4209D1A2EB0C03934313EABD
:10069000CC13DBD04FF00000704700BFD01A01BA76
:1006A000B1FA81F101F0180122FA01F0CB40C1F159
:1006B0002001DBB2C0B2C01A2CFA01F3D11A914367
:1006C00011EAC311E6D170477047704770470000C8
:1006D00070B5064C7C44064D7D4403E02068204400
:1006E0008047241DAC42F9D170BD0000C88D0000C8
:1006F000D08D000010B500F017FB006810BD10B5DC
:10070000044600F011FB046010BD70B50446856915
:100710000068C10601D5302600E02026C00707D0BA
:1007200070BDD4E9012130469047206A401C206208
:100730006D1EF6D570BD70B5044685690078C0079A
:1007400007D170BDD4E9012120209047206A401CC8
:1007500020626D1EF6D570BD09684A0501D540B20C
:100760007047C905FCD500B2704709684A0501D534
:10077000C0B27047C905FCD580B2704770B50C4651
:100780000546012A05D02878800600D5EA690023AD
:1007900002E0012305E05B1C934202D2E05C0028EA
:1007A000F9D1A869E618C01AA861286A1844286215
:1007B0002846FFF7AAFF04E0D5E9012114F8010B50
:1007C0009047B442F8D32846FFF7B5FF70BD00004C
:1007D0002DE9F0410646002410687529314616A51A
:1007E00010D0FFF7B9FF002802DA404213A507E056
:1007F00031688A0701D512A502E0490704D511A581
:10080000012401E0FFF7B1FF00210A2206F12407CD
:1008100009E0B0FBF2FCB0FBF2F302FB1C0030304D
:1008200078541846491C0028F3D123462A463046FE
:10083000BDE8F04100F0C1BA000000002D0000004A
:100840002B0000002000000011680268006A5305B8
:1008500001D508700AE0D30501D5088006E013062B
:1008600003D5C217C1E9000200E00860012070470B
:1008700001694A1C02610878704700B58FB0CDE964
:1008800001310021059105497944CDE90310114654
:10089000684600F031F90FB000BD0000E5FFFFFF32
:1008A0000A6802F8010B0A607047D1E900239A42F6
:1008B00002D2531C0B601070704700002DE9FF5FDF
:1008C00015468A460446DFF8AC80F8440027D8E98C
:1008D00000103E46CDE9001010E03AF816106A46C6
:1008E00002A800F0FEFC411C07D02178890603D540
:1008F000E269391891420DD80744761C20788006A9
:1009000002D5E069B84205DDAE42E6DB3AF81600F2
:100910000028E2D1A069C01BA0612046FFF7F5FEC8
:10092000D8E90010CDE90010002017E03AF81810BF
:100930006A4602A800F0D5FCB0F1FF3F81460BD01B
:1009400000250DF1080B05E0D4E901211BF8050095
:1009500090476D1C4D45F7D308F10100B042804629
:10096000E4DB206A384420622046FFF7E4FEBDE85D
:10097000FF9F0000968900002DE9F0418046D21DBE
:1009800022F007020025D2E90002F52915A614D0AD
:10099000011E72F1000106DA0023D0EB030063EBC5
:1009A000020211A608E0D8F800108B0701D50FA6A7
:1009B00002E0490701D50EA601251146002408F1E1
:1009C000240704E000F0B4F930323A55641C50EAD0
:1009D0000102F7D12B46324621464046BDE8F041A0
:1009E00000F0EBB9000000002D0000002B0000001B
:1009F0002000000030B4002100F1240408E002F0DF
:100A00000705D208303542EA4372DB086554491CB9
:100A100052EA0305F3D10468002310A2250707D585
:100A2000A40600D421B1C46901230DA2641EC461CF
:100A300030BC00F0C2B910B5044621461068FFF77B
:100A400094FE02462046BDE810400023D2E7D21DA6
:100A500022F00701D1E90023CCE7000000000000EC
:100A600030000000F0B40D460188090502D5214C84
:100A70007C4402E01F4C7C440E34002100F124062B
:100A800008E002F00F071209E75D42EA03721B0952
:100A90007754491C52EA0307F3D102780023120766
:100AA00004D5702D06D009B1022311342246F0BCC2
:100AB00000F083B901231034F8E770B504460D4601
:100AC00021461068FFF751FE024629462046BDE840
:100AD00070400023C6E7D21D22F00703D3E90023AC
:100AE000C0E70368126843F0200303600823C36172
:100AF0000023B7E7F88700002DE9F05F8946044638
:100B00004FF0000ADFF874B1FB44C0F820A0204683
:100B1000E1688847002874D0252806D0D4E901214F
:100B20009047206A401C2062F1E700265F4620467D
:100B3000E16888472028054607DB312D05D2781962
:100B400010F8200C08B10643F1E7B00701D526F0F4
:100B50000406C4F81CA00027C4F818A02A2D09D048
:100B6000284606F079F938B304EB8708303DC8F819
:100B7000185019E059F8041B204604EB87029161D4
:100B8000E1688847012F054618D1E069002820DA7E
:100B900026F020061DE0D8F8180000EB800005EBD9
:100BA00040003038C8F818002046E16888470546FC
:100BB00006F052F90028EED1012F0AD02E2D08D1CF
:100BC0002046E16888477F1C0546022F46F0200634
:100BD000C4DBA069002803DA404246F00106A061A8
:100BE000F00701D026F010066C2D0BD0682D09D02F
:100BF0004C2D39D06A2D35D0742D35D07A2D33D087
:100C000016E038E0E1682F4620468847B84205469E
:100C100009D16C2F26D04FF48060E168064320464E
:100C20008847054604E06C2F1AD04FF480700643C5
:100C30000DB3A5F14100192802D8203546F400660D
:100C40004A462946204626604E46FFF709FB80B1FA
:100C500001280BD0F61D26F0070000F1080956E721
:100C60004020E4E78020D8E70020D6E706F1040919
:100C70004DE7284652E7206ABDE8F09F88870000CC
:100C800010B5203AC0F00B80B1E81850203AA0E827
:100C90001850B1E81850A0E81850BFF4F5AF5FEA5B
:100CA000027C24BFB1E81850A0E8185044BF18C90E
:100CB00018C0BDE810405FEA827C24BF51F8043BB5
:100CC00040F8043B08BF7047D20728BF31F8023B09
:100CD00048BF11F8012B28BF20F8023B48BF00F89D
:100CE000012B70474FF000020429C0F0128010F071
:100CF000030C3FF484ACCCF1040CBCF1020F18BF20
:100D000000F8012BA8BF20F8022BA1EB0C01FFF784
:100D100076BC5FEAC17C24BF00F8012B00F8012BF0
:100D200048BF00F8012B704700487047EC60002076
:100D300030B5B0F10A024FEA900E71F100034EEAAD
:100D4000817EB0EB0E0061EB91014FEA101E4EEA7E
:100D5000017E10EB0E0041EB11114FEA102E4EEA0E
:100D6000016E10EB0E0041EB11214FEA104E4EEADE
:100D7000014E10EB0E0041EB1141401841F1000112
:100D80004FEAD00040EA41704FEAD10110EB8005F4
:100D90004FEA810444EA907444EB01046D1944EB7A
:100DA0000404521BA3414FF0000348BF0A3200D590
:100DB00030BD401C41F1000130BD2DE9F0470D462A
:100DC00099469246044600F124080168880604D535
:100DD000E06921F01001216000E00120A84201DD5E
:100DE000471B00E00027A1697A1902EB0900081AE5
:100DF000A0612078C00602D42046FFF786FC0026BA
:100E000008E0D4E901211AF806009047206A401C46
:100E1000761C20624E45F4DB2078C0060AD52046B9
:100E2000FFF773FC06E0D4E9012130209047206AE7
:100E3000401C2062381EA7F10107F4DC07E0D4E96A
:100E4000012118F805009047206A401C2062281EE6
:100E5000A5F10105F3DC2046FFF76DFC20780006C4
:100E600002D50220BDE8F0870120FBE770472DE99D
:100E7000FF4F0C461E464FF0FF378BB0D2E9000102
:100E8000DDF860800A908A46C1F30A5505B93D46EF
:100E9000002108464FF00000BAF1000F00F44000B6
:100EA00005DA00EB80004FF4400101EA50004FEA00
:100EB0009059B9F1010F00DDB9460A9850EA4A008D
:100EC0000ED044F61050A5F2FF3545432F14B8F16B
:100ED000000F1ED07542291E1EDDC9F100021CE064
:100EE000B8F1010F4FF0000001D0302103E0F243D0
:100EF00005E02154401CB042FBDB304600220021BB
:100F000021540B99C1F80880C1E900200FB0BDE859
:100F1000F08FBD1B6D1CDEE74A4600DA694206A869
:100F200000F076FA06AB93E8070003AB83E807000E
:100F300050460A9900F0EFFA8DE80700A0F500503E
:100F40001F3800900398002D0ADD42F21F014A4627
:100F50000844002303A90390684600F058FD09E007
:100F6000A0F500504A461F38002303A903906846A5
:100F700000F062FD8DE807000004000C03D04FF084
:100F8000FF30410800E01046B8F1000F03D0002206
:100F9000009215461EE0751E05D4FFF7C9FE3032DB
:100FA00062556D1EF9D5B3460122084302D00022D6
:100FB0007F1C04E02078302801D100227F1E002A07
:100FC000099784D01DE0112D07DAFFF7B1FE30320A
:100FD00062556D1C50EA0102F5D1084302D0009819
:100FE000C8B10EE00021681E05E0235C625C63541A
:100FF0002254401E491C8142F7DBAB46A81B401E11
:101000000990002004F80B000B98099AC0F808809A
:10101000C0E9002B7AE711264FF0000857E72DE9C9
:10102000F04F88460446D21D22F0070191B0D1E965
:101030000001CDE90A0105F02DFB02460B98C00F17
:1010400001D02D2007E02068810701D52B2002E088
:10105000202101EAC000032A099001D0072A05DBFC
:1010600003464146204600F093F90BE120788006C4
:1010700001D5E06900E00620B8F1650F814606D091
:10108000B8F1660F18D0B8F1670F70D131E00020C9
:10109000B9F1110F009001DB112301E009F1010307
:1010A0000AAA01A90CA8FFF7E2FEDDE90C700026F0
:1010B00009F10105834647E001204B4600904FF0BF
:1010C00000470AAA01A90CA8FFF7D1FEDDE90DB07F
:1010D0000C995D46002610B909F101000D18B9EB15
:1010E000050003D4C0F1FF3609F10105A5EB0900A5
:1010F0002BE0B9F1010F01DA4FF001090020B9F13D
:10110000110F0090484601DD112300E003460AAAB2
:1011100001A90CA8FFF7ABFEDDE90C704D460026D7
:101120008346207800070AD4AB4500DA5D4601A863
:10113000012D04DD411911F8011C302907D04F455C
:1011400002DA17F1040F04DA012082460FE06D1E67
:10115000EEE7002F02DCED1B3E4403E0781CA842C2
:1011600000DD7D1CB81B00F1010A4FF0004720781C
:10117000000703D4AA4501DB4FF0FF3A0021B7F185
:10118000004F0DF143088DF8431024D002202B238B
:10119000002F01DA7F422D230A21021EA0F1010057
:1011A00000DC5FB197FBF1FC97FBF1F201FB1C7CCB
:1011B00017460CF1300C08F801CDEEE7A8F101005C
:1011C00003702188090501D5452100E06521A0F1C2
:1011D000010800F8011C09980FA9A1EB0807FF1DE1
:1011E00000B10120411901EBEA70A1693844081AE5
:1011F000401EA0612078C00602D42046FFF785FA81
:10120000099828B1D4E901219047206A401C206246
:101210002078C00622D52046FFF777FA1EE0002E80
:1012200004DBB34502DD01A8805D00E03020D4E995
:1012300001219047206A401C2062761CAAF101001F
:101240005FEA000A0AD100F09FF8C0680168405CBC
:10125000D4E901219047206A401C2062281EA5F194
:101260000105DCDC07E0D4E9012118F8010B904707
:10127000206A401C2062381EA7F10107F3DC2046DB
:10128000FFF759FA032011B041E610B5436913B1D5
:10129000AFF3008001E0FFF771FA012010BD127872
:1012A00000F124010A7000224A700122EDE7116862
:1012B0004FF0FF32E9E710B5436913B1AFF3008097
:1012C00001E0FFF7FBFA012010BD128800F12401B4
:1012D00082840022C2840122EDE711684FF0FF32C0
:1012E000E9E770B516460C46054600F045F8036878
:1012F00093F80101012806D0FF2C0FD8185D68B1C2
:1013000001202C7070BDD3F807013246214603F24C
:10131000071303442846BDE8704018474FF0FF30DC
:1013200070BD000000487047EC6000207546FFF774
:10133000F9FFAE4605006946534620F00700854692
:1013400018B020B5FFF768F8BDE820404FF0000660
:101350004FF000074FF000084FF0000B21F007019D
:10136000AC46ACE8C009ACE8C009ACE8C009ACE8E0
:10137000C0098D467047000010B500F005F8001D4B
:1013800010BD00BFC57B0000004870470C61002005
:101390002DE9F0411F46044603260168072A01F49F
:1013A000006004DB08B116A505E016A503E008B14E
:1013B00015A500E015A521F010002060A069C01E51
:1013C000A0610FB1401EA0612046FFF79EF94FB10A
:1013D000D4E9012138469047206A401C2062C01C95
:1013E000206206E0206AFAE7D4E9012115F8010B32
:1013F0009047761EF8D22046FFF79DF9BDE8F081B0
:101400004E414E006E616E00494E4600696E6600A8
:101410002DE9F047814616468AB0354878440DC814
:101420008DE80D0032487844801C03AC0DC884E878
:101430000D0041F69B300844372190FBF1F290FB00
:10144000F1F5A5F1800501FB12041B3C02D56442B5
:10145000012000E00020DFF898A080460027FA4431
:10146000AAF1BE0A0EE0E0070AD03246684607EB52
:10147000470101230AEB810100F0DEFA8DE8070045
:1014800064107F1C002CEED1194F7F44AE3F19E051
:10149000E80715D007EB04100DF1180A90E80E00CC
:1014A0008AE80E00C068F04201D1981908903246CF
:1014B000012306A903A800F0BFFA03AB83E80700E5
:1014C0006D10641C002DE3D14FF0010332466946D4
:1014D000B8F1000F03A802D000F099FA01E000F083
:1014E000ABFAC9E90001C9F808200AB0BDE8F087E5
:1014F000047F000010B50446AFF300802046BDE82D
:101500001040FEF714BF000001491820ABBEFEE7F3
:101510002600020070475FEA400C08BF91F0000F00
:101520004FEA8C234FEAC12243EA51514FEA1C5043
:1015300018BF00F5F0404FEA300018BF41F00041FD
:101540005FEA6C5C00F02980BCF1FF3F08BF40F00F
:1015500080407047130C06BF12044FF0100C4FF080
:10156000000C130E04BF12020CF1080C130F04BF81
:1015700012010CF1040C930F04BF92000CF1020C49
:10158000D30F04BF52000CF1010C11464FF00002C2
:10159000A0F11F00A0EB0C00704711F0004F08BF36
:1015A000704731F000413FF4D5AF0B0C06BF090482
:1015B0004FF0100C4FF0000C0B0E04BF09020CF1A1
:1015C000080C0B0F04BF09010CF1040C8B0F04BFB6
:1015D00089000CF1020CCB0F04BF49000CF1010C87
:1015E000CCF12003A0EB0C0022FA03F302FA0CF278
:1015F00041EA030100F10100704720F07F4C80EACE
:10160000030023F07F47ACEB070303F57C5300F0A6
:10161000004003F1FF032DE980494FEA154B09B45F
:101620004FEA144325EA0B4E24EA03480FF204263E
:1016300006EB132749083E785FEA320203FB066790
:10164000C7F5000707FB06F64FEA54374FEAD646C0
:1016500006F1020607FB066CCCF1005C4FEA1C4762
:101660002CEA074C07FB06F40CFB06F504EB1546C9
:101670004FEA961634BF00204FF000404FEAD137B2
:1016800006FB07FC4FEA1C4C0CFB0BF7D21B03FBC1
:101690000CF761EB07010CFB0EF7B0EB074072EBA8
:1016A00017420CFB08F734BFA2EB0742B2EB07422C
:1016B00061EB17414FEA0C444FEA910706FB07FC28
:1016C0004FEA1C4C0CFB0BF7B0EBC74072EB5732E8
:1016D00003FB0CF734BFA2EBC742B2EBC74261EB8E
:1016E00057310CFB0EF7B0EBC70072EB57720CFBD7
:1016F00008F734BFA2EBC702B2EBC70261EB577128
:10170000039F4FEA816141EA921104EBCC044FEA56
:10171000D1374FEA826206FB07FC42EA90124FEA99
:1017200080604FEA1C4C0CFB0BF7D21B03FB0CF741
:1017300061EB07010CFB0EF7B0EB074072EB1742B1
:101740000CFB08F734BFA2EB0742B2EB074261EB98
:1017500017414FEA8C554FEA910704EB9C2406FB96
:1017600007FC4FEA1C4C0CFB0BF7B0EBC74072EBCD
:10177000573203FB0CF734BFA2EBC742B2EBC742B0
:1017800061EB57310CFB0EF7B0EBC70072EB5772F1
:101790000CFB08F734BFA2EBC702B2EBC70261EB48
:1017A000577115EB4C254FEA816141EA92114FEADE
:1017B00082624FEAD13742EA901206FB07FC44F1FD
:1017C00000044FEA80604FEA1C4C0CFB0BF7D21B65
:1017D00003FB0CF761EB07010CFB0EF7B0EB0740C6
:1017E00072EB17420CFB08F734BFA2EB0742B2EBD7
:1017F000074261EB174115EB1C154FEA813141EAB5
:1018000092414FEA823242EA90424FEA80304FEAF8
:101810000C7644F1000448EA03434EEA0B484FF0CB
:10182000000EB2EB080C71EB030724BF6246394689
:101830004EEB0E0E4FF0000B0018524149414BEB9E
:101840000B0BB2EB080C71EB03077BF1000B24BF11
:10185000624639464EEB0E0E4FF0000B0018524117
:1018600049414BEB0B0BB2EB080C71EB03077BF11F
:10187000000B24BF624639464EEB0E0E51EA0207BA
:1018800018BF46F0010616EB0E7655F1000254F132
:10189000000103D5BDE88901BDE80088BDE88901E4
:1018A000BDE80048B619524141EB0101A3F1010323
:1018B000704780807F7E7D7C7B7A797877767675BD
:1018C0007473727171706F6E6E6D6C6C6B6A6A6935
:1018D0006868676666656464636362616160605FCF
:1018E0005F5E5E5D5D5C5C5B5B5A5A595958585748
:1018F00057565655555554545353525252515150B0
:1019000050504F4F4F4E4E4D4D4D4C4C4C4B4B4B02
:101910004A4A4A4949494848484747474746464648
:101920004545454444444443434343424242424183
:101930004141002B9C4630D477002BD01CB54FEA98
:10194000370703B44FF010004FF01001BAF1000F49
:1019500006D0BCF1000FDCBF40F0080040F00801E9
:101960004FF000000FBCBDE810400BF1010BBBF1C4
:10197000010F08BF5FEA170722BF12F1010211F140
:1019800001014FF0004143F1000300F0004043EA41
:1019900000007047F9D35708D0E746EA064613F12E
:1019A000400F4FEA16461FDD13F1200FDFBF16432D
:1019B0000A46002120335B42BED0C3F1200746EA2D
:1019C000064602FA07F74FEA164646EA0706C3F14B
:1019D000200722FA03F201FA07F721FA03F14FF088
:1019E000000342EA0702A7E746EA020646EA06467D
:1019F0004FEA164646EA0106BCBF46EA0646360CE2
:101A00004FF000034FF000024FF0000194E72DE982
:101A1000804C9A46934670B491E8380007C831EA82
:101A2000400C48BF34EA430C03D5FFF7E6FDFFF74F
:101A300080FFF0BCBDE8008C2DE9804C9A469346AF
:101A400070B491E8380007C810F0804F08BF13F059
:101A5000804F03D100F005F8FFF76BFFF0BCBDE845
:101A6000008C20F07F4780EA030023F07F4C07EBD7
:101A70000C03A3F57C5300F00040A3F1FE0392F0A9
:101A8000000F00F0B38095F0000F00F077802DE993
:101A900001494FEA11404FEA144621EA004800FB91
:101AA00006FC24EA064708FB06F607FB08F800FBDD
:101AB00007F718EB06484CEB164C4FEA124B18EBA5
:101AC00007484FEA15464CEB174022EA0B4E0BFB3A
:101AD00006FC25EA06470EFB06F607FB0EFE0BFB8F
:101AE00007F71EEB064E4CEB164C4FF000061EEBB4
:101AF000074E4CEB174B18EB0B0840F1000018EBAE
:101B00000E0B58EB000840F100008F1A4FF0000157
:101B10003CBFC943661B14BFB5EB040C00213CBF9E
:101B2000C943F61B4FEA17444EEA8E0E27EA0445D6
:101B30004FEA1C4704FB07622CEA074C05FB07F73A
:101B40000CFB05F604FB0CFC16EB074642EB1742B8
:101B500016EB0C4642EB1C421BEB060658EB02024E
:101B6000414146EA9E0601D5BDE80189B6195241B8
:101B700041EB0101A3F10103BDE801894FEA1445DE
:101B80004FEA114724EA054621EA074C05FB07F412
:101B900006FB07F70CFB06F105FB0CFC11EB0741FC
:101BA00044EB17444FEA124711EB0C4144EB1C4441
:101BB00022EA074C05FB07F206FB07F70CFB06F6CB
:101BC00005FB0CFC16EB074642EB174216EB0C46E6
:101BD00042EB1C456A1854F1000148BF7047B61922
:101BE000524141EB0101A3F10103704795F0000F51
:101BF00037D04FEA11424FEA144721EA024624EA5D
:101C0000074C02FB07F106FB07F70CFB06F402FB8F
:101C10000CFC14EB074441EB17414FEA154714EB5A
:101C20000C4441EB1C4125EA074C02FB07F506FB7F
:101C300007F70CFB06F602FB0CFC16EB074645EB20
:101C4000174516EB0C4645EB1C42121951F10001E9
:101C500048BF7047B619524141EB0101A3F101039E
:101C600070474FEA14454FEA114724EA054621EA36
:101C7000074C05FB07F106FB07F70CFB06F24FF0DC
:101C8000000605FB0CFC12EB074241EB174112EB7F
:101C90000C4251EB1C4148BF7047921841EB0101C7
:101CA000A3F10103704700BFFEE7000010B5024832
:101CB00000F031FB10BD00007C03002010B502488D
:101CC00000F029FB10BD00007C03002010B5044685
:101CD0002146024803F05AFE10BD0000885F002034
:101CE0002DED048B82B0002400BFB2EE040A14482C
:101CF00003F048FE124803F042FE10EE105A284648
:101D000007F064F941EC180B0D4803F035FE10EEB6
:101D1000105A284607F05AF941EC190B8DED008B4B
:101D200053EC192B07A005F073FF054803F0A0FE44
:101D300003F0AAFB641C012005F0EAF8D5E70000D7
:101D4000885F002025662C25660D0A0010B500214D
:101D50009FED125ADFED114A9FED104ADFED0F3A69
:101D60009FED0F3ADFED0F2A9FED0E2ADFED0B1AE4
:101D70009FED0D1ADFED0D0A9FED0D0A0D4804F0E1
:101D800023FCDFED0D0A9FED0D0A022301220C4911
:101D90000848503803F004FF10BD000000000000A8
:101DA0006F12833A00401C46A9FB303EDD844F434E
:101DB00026147A43D85F0020000080462CA0994169
:101DC0007C03002010B5024800F0D8FD10BD0000D3
:101DD0003404002010B5024800F0D0FD10BD000012
:101DE0009404002010B5024800F0C8FD10BD0000AA
:101DF000F404002010B5024800F0C0FD10BD000042
:101E0000540500200146087810381823B0FBF3F27F
:101E10000848805CC865032A05D908686FF3090083
:101E2000001D886503E008686FF309008865886D08
:101E30007047000004910008014600208A6A8B69FF
:101E4000CBB932B1012A0DD0022A03D0032A10D116
:101E50000EE000BFCB6A03F08073B3F1807F00D146
:101E6000012007E0CB6AB3F1C07F00D1012001E07F
:101E700000E000BF34E08B69B3F5005F1AD132B1E6
:101E8000012A07D0022A03D0032A11D10AE000BF99
:101E900001200EE0CB6A03F08073B3F1807F00D1A4
:101EA000012006E0CB6AB3F1C07F00D1012000E041
:101EB00000BF15E032B1012A05D0022A04D0032A5E
:101EC0000CD103E000BF00BF012008E0CB6A03F0A3
:101ED0008073B3F1807F00D1012000E000BF00BF1C
:101EE000704730B50468246824F4802405682C60A9
:101EF000046863608468402C04D10468A2600468AC
:101F0000E16003E00468A1600468E26030BD7047EE
:101F100072B600BFFEE7F0B504460D461E4694F8C3
:101F2000207020688368A86800B900E000BF012F16
:101F300001D0022F7DD103F0806030B903F0006042
:101F400018B903F0805000287ED0C3F3016101204E
:101F500088403060A86860B9B5F800C0E86840EA19
:101F60004C5C206800F5C07000EB0110C0F800C0A8
:101F70000FE0D5E901C040EACC00D5F80CC040EA3A
:101F80000C00D4F800C00CF5C07C0CEB011CCCF8A4
:101F90000000D5F810C0206800F5C07000EB0110FB
:101FA000C0F804C0287D01280ED1206800F5C0705B
:101FB00000EB0110406840F4807C206800F5C070A0
:101FC00000EB0110C0F804C0D079000692F806C0FA
:101FD00040EA0C4092F805C040EA0C2092F804C098
:101FE00040EA0C00D4F800C00CF5C07C0CEB011CDE
:101FF000CCF80C00D078000692F802C040EA0C4001
:1020000092F801C040EA0C2092F800C040EA0C00AF
:10201000D4F800C00CF5C07C0CEB011CCCF8080017
:10202000206800F5C07000EB0110006840F0010C62
:1020300001E00FE008E0206800F5C07000EB01103F
:10204000C0F800C00020F0BD606A40F4001060627B
:102050000120F8E7606A40F4802060620120F2E726
:10206000F0B504460A4694F82050012D01D0022D07
:102070007ED1424901F50071086840F00100086016
:10208000086820F47C5008600868566A40EA062018
:102090000860107D00F01F06012000FA06F3C869F1
:1020A0009843C861A1F50071D069C8B9D1F80C0294
:1020B0009843C1F80C02908880B2968940EA06469F
:1020C00001F51070576940F83760108880B21689A2
:1020D00040EA064601F51070576900EBC7004660FC
:1020E000D069012819D1D1F80C021843C1F80C02AB
:1020F000908880B2168840EA064601F5107057694C
:1021000040F83760908980B2168940EA064601F5AA
:102110001070576900EBC7004660906928B9D1F884
:1021200004029843C1F8040204E0D1F80402184301
:10213000C1F80402106928B9D1F814029843C1F813
:10214000140204E0D1F814021843C1F81402106A12
:10215000012804D1D1F81C021843C1F81C02D1F89F
:10216000000220F00100C1F800020020F0BDFFE7EE
:10217000606A40F4802060620120F7E7006400405C
:10218000704770B5044694F82050012D01D0022DFF
:102190007DD151B92068C06800F0030080B9606A41
:1021A00040F400106062012070BD2068006900F0FA
:1021B000030028B9606A40F4001060620120F3E770
:1021C000206800F5D87000EB0110006800F00400F2
:1021D0009060906840B9206800F5D87000EB01105D
:1021E0000068400D106007E0206800F5D87000EB33
:1021F00001100068C0085060206800F5D87000EB3E
:102200000110006800F00200D060206800F5D8706E
:1022100000EB0110406800F00F00082802D30820EE
:10222000106108E0206800F5D87000EB01104068EC
:1022300000F00F001061206800F5D87000EB01106D
:10224000406800F47F40000A9061206800F5D87073
:1022500000EB01104068000C5061206800F5D87058
:1022600000EB011080681870206800F5D87000EB52
:102270000110806800F47F40000A5870206800F563
:10228000D87000EB0110806800F47F0000E03CE0B3
:10229000000C9870206800F5D87000EB0110806881
:1022A000000ED870206800F5D87000EB0110C068EF
:1022B0001871206800F5D87000EB0110C06800F4B8
:1022C0007F40000A5871206800F5D87000EB0110BB
:1022D000C06800F47F00000C9871206800F5D87089
:1022E00000EB0110C068000ED87131B92068C068D9
:1022F00040F020002668F06005E02068006940F0AA
:1023000020002668306100204EE7606A40F480209B
:102310006062012048E72DE9F05F0446002520684F
:1023200046692068D0F80490206887682068D0F853
:102330000CA02068D0F810B02068D0F8188006F003
:102340000100002855D007F00100C0B1012021682C
:10235000886007F0020018B1204600F09EFA0EE0F7
:1023600007F0040010B145F4006508E007F008002C
:1023700010B145F4805502E0204600F08DFA07F4D4
:102380008070C8B14FF480702168886007F40070D5
:1023900018B1204600F083FA0EE007F4806010B117
:1023A00045F4005508E007F4006010B145F480459D
:1023B00002E0204600F072FA07F48030C8B14FF412
:1023C00080302168886007F4003018B1204600F0A2
:1023D00068FA0EE007F4802010B145F4004508E0EB
:1023E00007F4002010B145F4803502E0204600F0EB
:1023F00057FA06F0080038B10AF0100020B145F491
:10240000007510202168C86006F0040040B10AF091
:10241000080028B108202168C860204600F0B0F903
:1024200006F0020038B12068C06800F0030010B167
:10243000204600F0A7F906F0400038B10BF010007C
:1024400020B145F4806510202168086106F0200065
:1024500040B10BF0080028B108202168086120462F
:1024600000F0BCF906F0100038B12068006900F0F7
:10247000030010B1204600F0B3F906F4003040B17B
:1024800009F0100028B1102021684860204600F0B3
:10249000D3F906F4803040B109F0080028B10820D3
:1024A00021684860204600F0FDF906F4004088B33A
:1024B00009F0040078B306F4807020B108F0010040
:1024C00008B145F0010506F4007020B108F00200E3
:1024D00008B145F0020506F4806020B108F0040060
:1024E00008B145F0040506F40060A0B108F07000E2
:1024F00088B108F07000402817D006DC10280BD0F7
:1025000020280CD0302819D10CE0502810D0602899
:1025100014D110E01DE019E045F008050FE045F08A
:1025200010050CE045F0200509E045F0400506E007
:1025300045F0800503E045F4807500E000BF00BF72
:102540002068806920F0700021688861042021687B
:1025500048602DB1606A284360622046FFF710FE94
:10256000BDE8F09F70B504460CB9012070BD94F829
:10257000200010B9204600F0AFF82068006840F055
:1025800001002168086000F0FBFC05460DE000F04A
:10259000F7FC401B0A2808D9606A40F400306062EA
:1025A000052084F820000120E0E72068406800F062
:1025B00001000028EBD02068006820F002002168AC
:1025C000086000F0DDFC05460DE000F0D9FC401B82
:1025D0000A2808D9606A40F400306062052084F857
:1025E00020000120C2E72068406800F002000028B7
:1025F000EBD1207E012806D12068006840F08000E1
:102600002168086005E02068006820F080002168EB
:102610000860607E012806D12068006840F0400014
:102620002168086005E02068006820F0400021680B
:102630000860A07E012806D12068006840F02000D4
:102640002168086005E02068006820F0200021680B
:102650000860E07E012806D12068006820F01000A4
:102660002168086005E02068006840F010002168DB
:102670000860207F012806D12068006840F008002B
:102680002168086005E02068006820F008002168E3
:102690000860607F012806D12068006840F00400CF
:1026A0002168086005E02068006820F004002168C7
:1026B0000860D4E9020108432169084361690843BD
:1026C0006168491E08432168C861002060620120DA
:1026D00084F82000002049E710B586B00446142194
:1026E00001A8FDF78AFF2349206888423FD100BF37
:1026F000002000902048006840F000701E490860EB
:102700000846006800F00070009000BF00BF00BFE6
:102710000020009018481038006840F00800164962
:10272000103908600846006800F00800009000BFFB
:1027300000BF03200190022002900020039003209C
:1027400004900920059001A90C4800F00BFB002221
:102750000521142000F0DCFC142000F0C5FC002250
:102760000521152000F0D4FC152000F0BDFC06B0BA
:1027700010BD00000064004040380240000C0240E0
:102780007047000010B504461049206888420CD1FB
:102790000F4BA3F11C0200212046FFF7F2FC0C486E
:1027A0002038816A001D88470FE00A492068884266
:1027B0000BD1094BA3F11C0200212046FFF7E1FCDD
:1027C00005482038816A001D884710BD006400401C
:1027D000F04E0020006800401C4F002070470000B1
:1027E00010B504461049206888420CD10F4BA3F164
:1027F0001C0201212046FFF7C4FC0C482038816AE6
:10280000001D88470FE00A49206888420BD1094B18
:10281000A3F11C0201212046FFF7B3FC0548203834
:10282000816A001D884710BD00640040F04E002002
:10283000006800401C4F0020704770B5044694F8B3
:102840002000012822D1022084F82000206800689E
:1028500020F001002168086000F092FB05460DE0C1
:1028600000F08EFB401B0A2808D9606A40F4003053
:102870006062052084F82000012070BD2068406857
:1028800000F001000028EBD16062F6E7606A40F4D6
:10289000002060620120F0E7704770477047704782
:1028A00070477047704770B50446A56D00F068FB2F
:1028B000064694F83500022808D08020606500BFE5
:1028C000002084F8340000BF012070BD206800683B
:1028D00020F01600216808602068406920F0800020
:1028E00021684861206C08B9A06C28B12068006894
:1028F00020F00800216808602068006820F00100CE
:102900002168086010E000F03BFB801B05280BD914
:1029100020206065032084F8350000BF002084F883
:10292000340000BF0320D0E72068006800F00100F9
:102930000028E8D194F85C103F208840A86001206E
:1029400084F8350000BF002084F8340000BF00BFC9
:10295000BBE7014691F83500022803D08020486586
:1029600001207047052081F835000868006820F0D4
:1029700001000A6810600020F3E70000F8B5044683
:10298000002000908C4800684FF41651B0FBF1F71E
:10299000A56D2E6894F85C1008208840304098B1EE
:1029A0002068006800F0040070B12068006820F022
:1029B00004002168086094F85C1008208840A86032
:1029C000606D40F00100606594F85C100120884063
:1029D000304068B12068406900F0800040B194F850
:1029E0005C1001208840A860606D40F002006065C6
:1029F00094F85C1004208840304068B1206800687A
:102A000000F0020040B194F85C1004208840A860F7
:102A1000606D40F00400606594F85C101020884000
:102A2000304078B32068006800F0080050B394F894
:102A30005C1010208840A8602068006800F48020A6
:102A400080B12068006800F4002028B9206CC8B16B
:102A50002046216C884715E0A06C98B12046A16CF7
:102A600088470FE02068006800F4807028B920686B
:102A7000006820F0080021680860206C10B1204632
:102A8000216C884794F85C10202088403040002852
:102A900065D02068006800F0100000285FD094F82E
:102AA0005C1020208840A86094F83500052828D1C3
:102AB0002068006820F016002168086020684069DE
:102AC00020F0800021684861206C08B9A06C28B112
:102AD0002068006820F008002168086094F85C1005
:102AE0003F208840A860012084F8350000BF002006
:102AF00084F8340000BF206D10B12046216D884756
:102B0000F8BD2068006800F4802080B1206800686B
:102B100000F4002028B9606C10B12046616C884731
:102B20001DE0E06BD8B12046E16B884717E02068D4
:102B3000006800F4807068B92068006820F0100018
:102B400021680860012084F8350000BF002084F867
:102B5000340000BFE06B10B12046E16B8847606D28
:102B600038B3606D00F00100F0B1052084F8350045
:102B70002068006820F001002168086000BF00980C
:102B8000401C0090B84200D905E02068006800F0C1
:102B900001000028F3D100BF012084F8350000BFF8
:102BA000002084F8340000BFE06C10B12046E16CD6
:102BB000884700BFA4E70000BC0100202DE9F041D8
:102BC0000446002500F0DCF9074614B90120BDE8F1
:102BD000F081606A00B100BF022084F8350000BFB8
:102BE000002084F8340000BF2068006820F0010055
:102BF000216808600AE000F0C3F9C01B052805D968
:102C000020206065032084F83500E0E72068006834
:102C100000F001000028EED1206805682148054039
:102C2000D4E901010843E168084321690843616967
:102C30000843A1690843E1690843216A0843054341
:102C4000606A042803D1D4E90B01084305432068D6
:102C500005602068456925F00705606A0543606ADC
:102C600004280DD1A06A0543E06A48B12046FFF769
:102C7000E3F828B140206065012084F83500A6E71C
:102C8000206845612046FFF7BDF8064694F85C10C1
:102C90003F208840B06000206065012084F8350046
:102CA000002094E73F8010F02DE9F04704460D46E0
:102CB00016461F464FF00008D4F8589000BF94F80D
:102CC0003400012802D10220BDE8F087012084F8F9
:102CD000340000BF94F83500012825D1022084F883
:102CE0003500002060653B46324629462046FFF706
:102CF000F8F894F85C103F208840C9F80800206874
:102D0000006840F0160021680860206C28B1206837
:102D1000006840F00800216808602068006840F002
:102D200001002168086006E000BF002084F834003C
:102D300000BF4FF002084046C6E7000070B50446E9
:102D400000F01EF906462546681C10B104480078BC
:102D5000054400BF00F014F9801BA842FAD370BDEF
:102D6000B8010020F8B502460B46002500240020DB
:102D70000021E0E0012606FA01F51E6806EA0504D6
:102D8000AC4274D11E7906F00306012E04D01E79E0
:102D900006F00306022E13D190684F000326BE40B2
:102DA000B0434F00DE68BE4030439060506801265B
:102DB0008E40B0431E79C6F300168E4030435060FB
:102DC0001E7906F00306032E09D0D0684F000326B3
:102DD000BE40B0434F009E68BE403043D0601E7975
:102DE00006F00306022E13D1CF0802F1200656F892
:102DF00027004E07F70E0F26BE40B0434F07FF0EC9
:102E00001E69BE403043CF0802F1200646F8270075
:102E100010684F000326BE40B0431E7906F003063B
:102E20004F00BE40304310605E6806F44036002E0E
:102E30001DD000BF00260096414E366846F48046FD
:102E40003F4F3E603E46366806F48046009600BF1F
:102E500000BF3C4E8F0856F827008E07370F0F260D
:102E6000BE40B043384EB24202D100262EE061E0AF
:102E7000364EB24201D1012628E0354EB24201D190
:102E8000022623E0334EB24201D103261EE0324E29
:102E9000B24201D1042619E0304EB24201D10526DA
:102EA00014E02F4EB24201D106260FE02D4EB24261
:102EB00001D107260AE02C4EB24201D1082605E0D6
:102EC0002A4EB24201D1092600E00A268F073F0FA1
:102ED000BE4030431B4E8F0846F82700244E306812
:102EE000A0435E6806F4801606B12043204E306091
:102EF000361D3068A0435E6806F4001606B1204314
:102F00001B4E361D30601A4E361F3068A0435E6877
:102F100006F4003606B12043154E361F3060361FCA
:102F20003068A0435E6806F4803606B12043104E38
:102F3000083E3060491C1029FFF41CAFF8BD0000AA
:102F400044380240083801400000024000040240BA
:102F500000080240000C0240001002400014024031
:102F600000180240001C02400020024000240240E1
:102F7000083C01400AB1816101E00B0483617047A4
:102F80000148006870470000B00100200348006855
:102F9000034909780844014908607047B0010020DE
:102FA000B801002010B50D48006840F400700B49CE
:102FB00008600846006840F48060086008460068C1
:102FC00040F480700860032000F0E0F80F2000F06B
:102FD00007F800F05FF8002010BD0000003C024040
:102FE0002DE9F04188B004460027B84600BF002014
:102FF00001902348006840F4807021490860084629
:10300000006800F48070019000BF00BF02A903A80F
:1030100000F0D8F9069F1FB900F0FCF9054602E060
:1030200000F0F8F945001748B5FBF0F0A0F10108F1
:1030300015481649086040F2E7311448C160C0F8ED
:103040000480002101618160816100F0ABFC0646D3
:1030500096B90E4800F0DAFC06466EB92D2000F055
:1030600043F8102C07D2002221462D2000F050F802
:103070000748046000E00126304608B0BDE8F08152
:103080004038024040420F0000200040B4050020BC
:10309000B401002008B500BF00200090114800686E
:1030A00040F480400F4908600846006800F4804002
:1030B000009000BF00BF00BF00200090081F006804
:1030C00040F08050091F08600846006800F08050FA
:1030D000009000BF00BF00220F21901E00F018F8E2
:1030E00008BD0000443802400146084600280DDBB8
:1030F00000BF00BF00F01F0301229A4043099B005C
:1031000003F1E023C3F8002100BF00BF00BF7047F8
:103110002DE9F05F80460D461646002703F0E6FADB
:10312000074639462A46334601F00700C0F1070A30
:10313000BAF1040F02D94FF0040A01E0C0F1070A06
:10314000D14600F1040ABAF1070F02D24FF0000A8B
:1031500001E0A0F1030AD4464FF0010A0AFA09FA85
:10316000AAF1010A0AEA020A0AFA0CFA4FF0010B64
:103170000BFA0CFBABF1010B0BEA030B4AEA0B0455
:103180002146404603F0BAFABDE8F09F00BF00F0C8
:103190000702064B19684FF6FF031940044B0B4317
:1031A00043EA0221014B196000BF70470CED00E0BB
:1031B0000000FA0538B5002400BF002000901D482B
:1031C000006840F080501B4908600846006800F025
:1031D0008050009000BF00BF012017490864FFF72E
:1031E000CFFE044607E0FFF7CBFE001BB0F57A7F69
:1031F00001D9032038BD1148406800F48030B0F593
:10320000803FF0D101200C494864FFF7B9FE044625
:1032100007E0FFF7B5FE001BB0F57A7F01D9032068
:10322000E8E70648406800F40030B0F5003FF0D110
:103230000020DFE74038024000000E4200700040EE
:1032400070B504460D460CB9012070BD58480068A1
:1032500000F00F00A84209D255490D7008460068D9
:1032600000F00F00A84201D00120EEE7207800F026
:10327000020002281DD1207800F00400042805D1A6
:103280004C48006840F4E0504A490860207800F05B
:103290000800082805D14748006840F460404549C7
:1032A00008604448006820F0F000A16808434149E4
:1032B0000860207800F00100A8B36068012807D1F9
:1032C0003C4808380068C0F34040B8B90120BCE76A
:1032D0006068022802D06068032807D135480838A2
:1032E0000068C0F3406048B90120AEE731480838B3
:1032F0000068C0F3400008B90120A6E72D48006827
:1033000020F00300616808432A490860FFF738FE8F
:10331000064609E0FFF734FE801B41F288318842FF
:1033200002D9032091E707E02248006800F00C0072
:103330006168B0EB810FEDD11D48006800F00F000F
:10334000A84209D91A490D700846006800F00F001C
:10335000A84201D0012078E7207800F0040004287A
:1033600007D11448006820F4E050E168084311498F
:103370000860207800F00800082808D10D4800688F
:1033800020F46040216940EAC1000A49086000F069
:1033900061F808490968C1F30311074A515CC84044
:1033A0000649086006480068FFF71AFE00204CE74F
:1033B000003C0240083802400C910008BC0100208B
:1033C000B40100200F2202600D4A126802F00302CD
:1033D00042600B4A126802F0F0028260084A1268EA
:1033E00002F4E052C260064A126802F46042D20857
:1033F0000261044A126802F00F020A60704700007E
:1034000008380240003C0240014800687047000054
:10341000BC01002000B5FFF7F7FF04490968C1F3BC
:103420008221034A515CC84000BD000008380240B8
:103430001C91000800B5FFF7E7FF04490968C1F3D4
:103440004231034A515CC84000BD000008380240C8
:103450001C9100082DE9F047002400250026A14614
:103460002548006800F00C0020B1042805D0082889
:103470003AD105E0DFF8849039E0DFF8849036E057
:103480001D48001F006800F03F041B48001F006833
:1034900000F4800078B11A481749091F0968C1F380
:1034A0008811A0FB01700146224600233846FCF734
:1034B000C5FF05460EE011480F49091F0968C1F311
:1034C0008811A0FB01700146224600233846FCF714
:1034D000B5FF05460848001F0068C0F30140401CC6
:1034E0004600B5FBF6F902E0DFF8109000BF00BF20
:1034F0004846BDE8F0870000083802400024F40088
:10350000001BB700F8B504460CB90120F8BD2078BF
:1035100000F00100002874D0F948006800F00C00A9
:1035200004280DD0F648006800F00C00082813D1DC
:10353000F348001F006800F48000B0F5800F0BD145
:10354000EF4808380068C0F34040002859D0606850
:10355000002856D10120D9E700BF6068B0F5803F50
:1035600008D1E7480838006840F48030E449083959
:1035700008601EE06068B0F5A02F0DD1E048083863
:10358000006840F48020DE49083908600846006879
:1035900040F4803008600CE0D9480838006820F416
:1035A0008030D749083908600846006820F4802038
:1035B000086000BF606890B1FFF7E2FC054606E0D6
:1035C000FFF7DEFC401B642801D903209EE7CC48AE
:1035D00008380068C0F340400028F1D011E0FFF740
:1035E000CFFC054606E0FFF7CBFC401B642801D961
:1035F00003208BE7C24808380068C0F34040002829
:10360000F1D1207800F0020002285FD1BC480068A8
:1036100000F00C0058B1BA48006800F00C0008280F
:103620001CD1B748001F006800F48000B0B9B4484E
:1036300008380068C0F3400020B1E068012801D0DC
:10364000012063E7AE480838006820F0F8002169DF
:1036500040EAC100AA490839086037E0E06800B3D1
:103660000120A8490860FFF78BFC054606E0FFF73C
:1036700087FC401B022801D9032047E7A0480838EF
:103680000068C0F340000028F1D09D480838006869
:1036900020F0F800216940EAC10099490839086022
:1036A00014E0002097490860FFF76AFC054606E031
:1036B000FFF766FC401B022801D9032026E790484B
:1036C00008380068C0F340000028F1D1207800F0ED
:1036D000080008282CD16069A8B101208A49086037
:1036E000FFF74EFC054606E0FFF74AFC401B0228A8
:1036F00001D903200AE782486C300068C0F340001B
:103700000028F1D014E000207F490860FFF738FC62
:10371000054606E0FFF734FC401B022801D90320D0
:10372000F4E677486C300068C0F340000028F1D11F
:10373000207800F00400042870D100277048383049
:10374000006800F0805090B900BF002000906C48E5
:103750003830006840F080506949383108600846C8
:10376000006800F08050009000BF00BF012767484C
:10377000006800F48070B0B96448006840F480705C
:1037800062490860FFF7FCFB054606E0FFF7F8FB1F
:10379000401B022801D90320B8E65C48006800F409
:1037A00080700028F2D000BFA068012808D15448DA
:1037B0006830006840F001005149683108601DE040
:1037C000A06805280DD14E486830006840F004001C
:1037D0004B49683108600846006840F00100086005
:1037E0000CE047486830006820F001004449683127
:1037F00008600846006820F00400086000BFA06868
:10380000A8B1FFF7BDFB054609E0FFF7B9FB401B78
:1038100041F28831884202D9032077E626E0384811
:1038200068300068C0F340000028EED013E0FFF7D6
:10383000A7FB054608E0FFF7A3FB401B41F28831D8
:10384000884201D9032061E62D4868300068C0F342
:1038500040000028EFD1012F07D1294838300068F7
:1038600020F0805026493831086000BFA069002848
:1038700045D02348006800F00C0008285DD0A069FE
:10388000022845D100201F490866FFF779FB05464D
:1038900006E0FFF775FB401B022801D9032035E63F
:1038A000174808380068C0F340600028F1D1D4E917
:1038B00007010843616A40EA81110122A06AC2EB54
:1038C000500041EA00412C20005D41EA00600C49B3
:1038D000091F086001200B490866FFF751FB0546E8
:1038E00006E0FFF74DFB401B022801D903200DE63F
:1038F000034808380068C0F340600028F1D049E070
:103900000838024000004742800E474200700040E5
:10391000002021490866FFF733FB054606E0FFF764
:103920002FFB401B022801D90320EFE51B4800684C
:10393000C0F340600028F2D12CE0A069012800D13A
:10394000E4E51648001D0668A069012820D006F4A9
:103950008001E06981421BD106F03F01206A81426B
:1039600016D147F6C0703040616AB0EB811F0FD1AD
:1039700006F440310122A06AC2EB5000B1EB004FC7
:1039800006D106F070612C20005DB1EB006F01D014
:103990000120BBE50020B9E50000474200380240A5
:1039A0007047704710B504460CB9012010BD94F85B
:1039B0003D0028B9002084F83C00204600F025F89E
:1039C000022084F83D00211D206800F0FFFF012047
:1039D00084F8460000BF84F83E0001213F200155D5
:1039E000402001554120015500BF00BF012084F84F
:1039F000420043200155442001554520015500BF98
:103A0000012084F83D000020D0E77047014691F87E
:103A10003D00012801D001207047022081F83D00BF
:103A20000868C06840F001000B68D8601A4B08684D
:103A300098421BD00868B0F1804F17D0174B086828
:103A4000984213D0164B086898420FD0154B08685F
:103A500098420BD0144B0868984207D0134B086863
:103A6000984203D0124B086898420CD108688068CD
:103A700000F00702062A0CD00868006840F0010038
:103A80000B68186005E00868006840F001000B68EA
:103A900018600020C0E70000000001400004004062
:103AA00000080040000C00400004014000400140BC
:103AB00000180040704770B504462068C56820684B
:103AC000066906F00200022819D105F0020002285A
:103AD00015D1401F21680861012020772068806986
:103AE00000F0030018B12046FFF7E4FF05E0204690
:103AF00000F097F8204600F095F80020207706F0B7
:103B00000400042819D105F00400042815D1C0438D
:103B100021680861022020772068806900F44070E5
:103B200018B12046FFF7C6FF05E0204600F079F8FF
:103B3000204600F077F80020207706F008000828DB
:103B400019D105F00800082815D1C0432168086183
:103B5000042020772068C06900F0030018B12046D7
:103B6000FFF7A8FF05E0204600F05BF8204600F0D4
:103B700059F80020207706F01000102819D105F020
:103B80001000102815D1C043216808610820207753
:103B90002068C06900F4407018B12046FFF78AFF22
:103BA00005E0204600F03DF8204600F03BF80020FC
:103BB000207706F0010048B105F0010030B16FF048
:103BC000010021680861204600F02EF806F0800010
:103BD000802809D105F08000802805D1C0432168E4
:103BE00008612046FFF7DCFE06F04000402809D1BE
:103BF00005F04000402805D1C043216808612046F7
:103C000000F0F4F806F02000202809D105F020008B
:103C1000202805D1C043216808612046FFF7C1FE76
:103C200070BD70477047000010B5044653480078D7
:103C300000B910BD52492068884207D151484068F8
:103C4000002802D04F494868804794E02068B0F1CE
:103C5000804F07D14C4840680028F6D04A49486850
:103C6000804788E049492068884207D14848406831
:103C70000028EAD04649486880477CE045492068EA
:103C8000884207D144484068002874D042494868B7
:103C9000804770E041492068884207D14048406829
:103CA000002868D03E494868804764E03D49206864
:103CB000884207D13C48406800285CD03A494868AF
:103CC000804758E039492068884207D13848406821
:103CD000002850D03649486880474CE03549206874
:103CE000884207D134484068002844D032494868A7
:103CF000804740E031492068884206D1304840681A
:103D000018B32F494868804735E02E49206888421B
:103D100006D12D484068C0B12B49486880472AE049
:103D20002A492068884206D12948406868B1284954
:103D3000486880471FE027492068884206D1264806
:103D4000406810B124494868804714E0234920683E
:103D5000884206D12248406868B1214948688047B6
:103D600009E020492068884205D11F48406810B109
:103D70001D494868804700BF5BE700000000002045
:103D8000000001409C020020A4020020000400402A
:103D9000AC02002000080040B4020020000C0040EB
:103DA000BC02002000100040C402002000140040AB
:103DB000CC02002000040140D40200200040014059
:103DC000DC02002000440140E402002000480140E1
:103DD000EC02002000180040F4020020001C00400B
:103DE000FC02002000200040040300207047F8B5CA
:103DF00004460D46164694F8420020282DD105B100
:103E00000EB90120F8BD0120206300206063324616
:103E10002946204601F0D4F80746206B012819D125
:103E200000BF002000902068006800902068406873
:103E3000009000BF00BF00BF00BF21680C3151E8F7
:103E4000001F41F0100021680C3141E80002002AF7
:103E5000F3D100E001273846D4E70220D2E7000082
:103E600070B504460D465049206888420FD14F482E
:103E70002946D0F8082200F5827090474B48B0F8E8
:103E8000042200F582712046FFF7B1FF8AE048491D
:103E9000206888420FD147482946D0F8082200F50B
:103EA000827090474348B0F8042200F582712046A2
:103EB000FFF79DFF76E04049206888420FD13F48D8
:103EC0002946D0F8082200F5827090473B48B0F8A8
:103ED000042200F582712046FFF789FF62E038492D
:103EE000206888420FD137482946D0F8082200F5CB
:103EF000827090473348B0F8042200F58271204662
:103F0000FFF775FF4EE03049206888420FD12F48F7
:103F10002946D0F8082200F5827090472B48B0F867
:103F2000042200F582712046FFF761FF3AE028493C
:103F3000206888420FD127482946D0F8082200F58A
:103F4000827090472348B0F8042200F58271204621
:103F5000FFF74DFF26E02049206888420FD11F4817
:103F60002946D0F8082200F5827090471B48B0F827
:103F7000042200F582712046FFF739FF12E018494C
:103F8000206888420ED117482946D0F8082200F54B
:103F9000827090471348B0F8042200F582712046E1
:103FA000FFF725FF70BD000000100140284F0020E2
:103FB000004400403451002000480040405300209D
:103FC000004C00404C550020005000405857002045
:103FD000001401406459002000780040705B00200C
:103FE000007C00407C5D0020704700002DE9F84F08
:103FF0000446206805682068C668206847694FF055
:104000000009CA4605F00F09B9F1000F0AD105F001
:10401000200038B106F0200020B1204600F03CFE20
:10402000BDE8F88FB9F1000F7CD007F0010018B996
:1040300006F49070002875D005F0010030B106F448
:10404000807018B1606C40F00100606405F00400FD
:1040500030B107F0010018B1606C40F002006064FC
:1040600005F0020030B107F0010018B1606C40F0BB
:104070000400606405F0080048B106F0200010B9A3
:1040800007F0010018B1606C40F008006064606CDB
:10409000002846D005F0200028B106F0200010B11D
:1040A000204600F0F9FD20684069C0F3801A606C7A
:1040B00000F0080010B9BAF1000F2DD0204600F032
:1040C00092FD2068406900F04000402820D100BFE8
:1040D00000BF2168143151E8001F21F04000216821
:1040E000143141E80002002AF3D100BFE06B50B167
:1040F0007F48E16B0865E06BFEF72BFC88B1E06B55
:10410000016D88470DE02046FFF76EFF09E009E0EA
:104110002046FFF769FF04E02046FFF765FF002017
:1041200060647DE7206B012878D105F0100000283D
:1041300074D006F010000028FAD000BF00200090D4
:1041400020680068009020684068009000BF00BFB1
:104150002068406900F04000402870D1E06B0068A2
:1041600040681FFA80F8B8F1000F58D0A08D404584
:1041700055DDA4F82E80E06BC069B0F5807F43D098
:1041800000BF00BF21680C3151E8001F21F480708E
:1041900021680C3141E80002002AF3D100BF00BFC2
:1041A00000BF2168143151E8001F21F0010021688F
:1041B000143141E80002002AF3D100BF00BF00BF64
:1041C0002168143151E8001F21F0400021681431AA
:1041D00041E80002002AF3D100BF202084F8420009
:1041E0000020206300BF00BF21680C3151E8001F90
:1041F00021F0100021680C3141E80002002AF3D1BF
:1042000000BFE06BFEF74FFB02206063A08DE28DE4
:10421000801A81B22046FFF723FE0EE052E0A08D07
:1042200040450AD1E06BC069B0F5807F05D102201E
:104230006063A18D2046FFF713FEF1E6FFE7A08D36
:10424000E18D401A1FFA80F8E08DD0B3B8F1000F6D
:1042500037D000BF00BF21680C3151E8001F21F4A6
:10426000907021680C3141E80002002AF3D100BFB0
:1042700000BF00BF2168143151E8001F21F0010088
:104280002168143141E80002002AF3D100BF202048
:1042900084F842000020206300BF00BF21680C3179
:1042A00051E8001F21F0100021680C3141E80002A4
:1042B000002AF3D100BF0220606341462046FFF789
:1042C000CFFDADE605F0800030B106F0800018B1FA
:1042D000204600F0E1FEA3E605F0400030B106F014
:1042E000400018B1204600F0B4FC99E600BF97E604
:1042F000AD4A000810B504460CB9012010BDA069F4
:1043000000B100E000BF94F8410028B9002084F813
:104310004000204600F02AF8242084F8410020685C
:10432000C06820F400502168C860204600F032FDCB
:104330002068006920F49040216808612068406985
:1043400020F02A00216848612068C06840F40050CD
:104350002168C86000206064202084F8410084F84F
:1043600042000020606300BFC8E7000010B586B0BF
:104370000446142101A8FCF740F97B4920688842D3
:1043800075D100BF002000907848006840F40030EC
:10439000764908600846006800F40030009000BFCD
:1043A00000BF00BF0020009070481038006840F047
:1043B00008006E49103908600846006800F00800DF
:1043C000009000BF00BF60200190022002900020FA
:1043D0000390032004900720059001A96448FEF78C
:1043E000C1FC6448644908604FF0006048600021E7
:1043F00061488160C1604FF48061016100214161C9
:104400008161C16101624162FEF7D8FB08B1FDF72D
:104410007FFD00BF5848E063846300BF55481830F3
:10442000564908604FF00060486040215348816061
:104430000021C1604FF4806101610021416181610F
:10444000C16101624162FEF7B9FB08B1FDF760FD91
:1044500000BF4A48A063846300BF002205212620D4
:10446000FEF756FE2620FEF73FFE7AE0FFE74449BE
:104470002068884275D100BF002000903B48001D95
:10448000006840F020003949091D086008460068AE
:1044900000F02000009000BF00BF00BF002000908F
:1044A00032481038006840F0400030491039086048
:1044B0000846006800F04000009000BF00BF4FF4C5
:1044C0008440019002200290002003900320049079
:1044D0000820059001A92B48FEF744FC2A482B49E7
:1044E000086080054860002128488160C1604FF461
:1044F00080610161002141618161C16101624162AC
:10450000FEF75CFB08B1FDF703FD00BF1F48E06349
:10451000846300BF1C4878301D4908604FF020605C
:10452000486040211A4881600021C1604FF48061D9
:104530000161002141618161C16101624162FEF757
:104540003DFB08B1FDF7E4FC00BF1148A0638463A4
:1045500000BF002205214720FEF7DAFD4720FEF7C5
:10456000C3FD06B010BD00000044004040380240CA
:10457000000C0240886002403404002094040020B3
:10458000001401400018024028640240F404002096
:1045900054050020704770472DE9F84F04460E4639
:1045A000174699464FF0000A94F84100202850D150
:1045B00006B117B90120BDE8F88F00206064212002
:1045C00084F84100FEF7DCFC8246A784E784A068FB
:1045D000B0F5805F04D1206910B90025B04602E033
:1045E00035464FF000081EE0534600228021204649
:1045F000CDF8009000F080FD20B1202084F841002B
:104600000320D8E745B9B8F80000C0F308002168D6
:10461000486008F1020803E02878216848606D1CB2
:10462000E08C401EE084E08C0028DDD1534600225F
:1046300040212046CDF8009000F05EFD20B1202002
:1046400084F841000320B6E7202084F841000020D0
:10465000B1E70220AFE7704700BFFEE710B50446A0
:104660002146024801F0DEFC10BD00008060002001
:1046700000BF20480068401C1E49086008460068CA
:1046800040F6B831B0FBF1F000F0010010B9DFEDF9
:104690001A0A01E0DFED190AB0EE600A184880ED51
:1046A000150A00BF9FED140A80ED160A00BF9FEDAA
:1046B000120A80ED170A00BFB3EE040A80ED190A52
:1046C00000BF9FED100A80ED1A0A00BF01F0C0FC88
:1046D0000D4801680068401C0B4A1060642905D928
:1046E000002011460860064801F014FD012002F088
:1046F0000FFCBEE72C03002000000000DB0FC940C8
:10470000806000209A99993E3003002008B500206F
:10471000DFED071AB2EE041AF3EE090AB2EE090A47
:104720000123024603490090034801F009FD08BD3A
:10473000DA2D24417C0300208060002010B50E4853
:104740000E4908600920486000210C488160C16062
:104750004FF480310161090141610021017601219D
:10476000417600218176C17601774177FDF7FAFE27
:1047700008B1FDF7CDFB10BD006400407C030020B4
:1047800008B500BF002000901E48006840F40010EB
:104790001C4908600846006800F40010009000BF43
:1047A00000BF00BF002000900846006840F4800071
:1047B00008600846006800F48000009000BF00BF59
:1047C000002205211020FEF7A3FC1020FEF78CFC30
:1047D000002205211120FEF79BFC1120FEF784FC2E
:1047E000002205213920FEF793FC3920FEF77CFCDE
:1047F000002205214520FEF78BFC4520FEF774FCC6
:1048000008BD00003038024010B5074A00210748B3
:1048100002F0D4FB06490860064A0021064802F06F
:10482000CDFB0649086010BDBC9000087F49000818
:10483000A8010020E09000086D490008AC010020AC
:1048400000B587B0142102A8FBF7D7FE00BF0020F7
:1048500001902648006840F040002449086008465E
:10486000006800F04000019000BF00BF00BF0020C2
:1048700001900846006840F00100086008460068A2
:1048800000F00100019000BF00BF00BF00200190B8
:104890000846006840F0080008600846006800F01C
:1048A0000800019000BF00BF00BF00200190084633
:1048B000006840F0800008600846006800F0800052
:1048C000019000BF00BF00223C210948FEF752FBC7
:1048D0003C200290012003900220049000200590CB
:1048E00002A90348FEF73EFA07B000BD3038024087
:1048F000001C024010B50A480A4908600A4848608E
:10490000002108488160C16001610C2141610021E2
:104910008161C161FFF7EEFC08B1FDF7F9FA10BD46
:1049200000440040A403002040420F0010B50B4893
:104930000B4908604FF4E13048600021084881606D
:10494000C16001610C21416100218161C161FFF7FA
:10495000D1FC08B1FDF7DCFA10BD000000140140E5
:10496000EC03002000BFFEE700BFFEE70446204640
:10497000FDF7B6F900BF012002F0CAFAFBE70446D2
:104980002046FFF775FE00BF012002F0C1FAFBE7E9
:1049900010B54FF0E020006904F06AF8012801D05A
:1049A00003F0B4FC10BD00000348006840F4700040
:1049B000014908607047000088ED00E010B502482A
:1049C000FFF779F810BD0000B405002010B50268AB
:1049D0002B4B98420ED0B0F1804F0BD0294B984210
:1049E00008D0294B984205D0284B984202D0284B3A
:1049F000984203D122F070024B681A43204B984230
:104A000020D0B0F1804F1DD01E4B98421AD01E4BC3
:104A1000984217D01D4B984214D01D4B984211D08C
:104A20001C4B98420ED01C4B98420BD01B4B98420B
:104A300008D01B4B984205D01A4B984202D01A4B13
:104A4000984203D122F44072CB681A4322F08003CB
:104A50004C6943EA04028B68C3620B688362084BAB
:104A6000984202D00A4B984201D10B690363036854
:104A700043F00403036001234361026010BD0000A2
:104A8000000001400004004000080040000C00400D
:104A90000004014000400140004401400048014042
:104AA00000180040001C00400020004070B5044683
:104AB000A56B0020E8852846FFF796FA70BD70B513
:104AC00006460025B46B20684069C0F3C01594F811
:104AD0004100212805D125B10020E084204600F0C6
:104AE000C8F820684069C0F3801594F84200222875
:104AF00005D125B10020E085204600F074F8606CF7
:104B000040F0100060642046FFF76EFA70BD70B58B
:104B10000546AC6B2868006800F48070002842D11C
:104B2000E08500BF00BF21680C3151E8001F21F46F
:104B3000807021680C3141E80002002AF3D100BFE7
:104B400000BF00BF2168143151E8001F21F00100AF
:104B50002168143141E80002002AF3D100BF00BFF0
:104B600000BF2168143151E8001F21F04000216886
:104B7000143141E80002002AF3D100BF202084F85C
:104B80004200206B01280ED100BF00BF21680C310C
:104B900051E8001F21F0100021680C3141E80002AB
:104BA000002AF3D100BF00206063206B012804D1EC
:104BB000A18D2046FFF754F902E02046FFF7EAFCFA
:104BC00070BD70B50546AC6B01206063206B012899
:104BD00005D1A08D41082046FFF742F902E02046AA
:104BE000FFF7D9FC70BD00BF00BF02680C3252E86D
:104BF000002F22F4907102680C3242E80013002B5F
:104C0000F3D100BF00BF00BF0268143252E8002F8A
:104C100022F001010268143242E80013002BF3D1A4
:104C200000BF016B01290ED100BF00BF02680C322A
:104C300052E8002F22F0100102680C3242E8001303
:104C4000002BF3D100BF202180F842100021016326
:104C5000704710B504462068C06820F04000216805
:104C6000C860202084F841002046FFF7F4FC0020B3
:104C700010BD00BF00BF02680C3252E8002F22F0C6
:104C8000C00102680C3242E80013002BF3D100BFD0
:104C9000202180F841107047F8B504460025002611
:104CA00094F84200222873D1A068B0F5805F0BD140
:104CB000206948B9A66A20684068C0F308003080BF
:104CC000A06A801CA06214E0A56AA068B0F5805FAD
:104CD00003D0A06828B9206918B9206840682870F6
:104CE00004E02068406800F07F002870A06A401C43
:104CF000A062E08D401E80B2E085002846D1206889
:104D0000C06820F020002168C8602068C06820F4D6
:104D100080702168C8602068406920F00100216827
:104D20004861202084F8420000206063206B012845
:104D300026D10020206300BF00BF21680C3151E85C
:104D4000001F21F0100021680C3141E80002002A08
:104D5000F3D100BF2068006800F0100010280AD1CD
:104D600000BF002000902068006800902068406824
:104D7000009000BF00BFA18D2046FFF771F802E050
:104D80002046FFF707FC0020F8BD01E00020FBE70C
:104D90000220F9E72DE9F84F04462068006920F465
:104DA0004050E1680843216808612169A068084310
:104DB00061690843E169084300902068C06849F2CE
:104DC0000C618843009908432168C86020684069E5
:104DD00020F44070A1690843216848617649206841
:104DE000884203D075492068884203D1FEF722FB30
:104DF000814602E0FEF70EFB8146E069B0F5004F08
:104E00006CD102206168A0FB015003461920A9FB68
:104E1000007001462A463846FBF710FB6421B0FBC0
:104E2000F1F04FEA001A02206168A0FB01510B4625
:104E30001920A9FB00712A463846FBF7FFFA834682
:104E400002206168A0FB015003461920A9FB0071F4
:104E50002A463846FBF7F2FA6421B0FBF1F000EB8A
:104E6000C00101EB0010ABEB8000322101EBC00070
:104E70006421B0FBF1F000F0F8000AEB400A0220D8
:104E80006168A0FB015003461920A9FB0070014690
:104E90002A463846FBF7D2FA834602206168A0FB17
:104EA000015003461920A9FB00712A463846FBF73A
:104EB000C5FA6421B0FBF1F000EBC00101EB00107A
:104EC000ABEB8000322101EBC0006421B0FBF1F0BC
:104ED00000F007005044216888606AE0042061689F
:104EE000A0FB015003461920A9FB007001462A4689
:104EF0003846FBF7A3FA824604206168A0FB015004
:104F000003461920A9FB007001462A463846FBF7E4
:104F100095FA6421B0FBF1F000EBC00101EB001049
:104F2000AAEB8000322101EB00106421B0FBF1F00C
:104F300000F0F00A04206168A0FB0170034619200C
:104F4000A9FB00513A462846FBF778FA6421B0FBEA
:104F5000F1F00AEB001A04206168A0FB01510B4636
:104F60001920A9FB00712A463846FBF767FA8346E9
:104F700004206168A0FB015003461920A9FB0070C2
:104F800001462A463846FBF759FA6421B0FBF1F096
:104F900000EBC00101EB0010ABEB8000322101EB14
:104FA00000106421B0FBF1F000F00F0050442168C4
:104FB0008860BDE8F88F0000001001400014014037
:104FC00077B581B0044615460298A062A5850020F9
:104FD0006064222084F842002C48E16BC8632C48AE
:104FE000E16B08642B48E16BC8640020E16B086545
:104FF00002AE32682368191D2B46E06BFDF754FEA4
:1050000038B110206064202084F84200012004B0F0
:1050100070BD00BF002000902068006800902068EC
:105020004068009000BF00BF206970B100BF00BFA2
:1050300021680C3151E8001F41F4807021680C3167
:1050400041E80002002AF3D100BF00BF00BF216881
:10505000143151E8001F41F001002168143141E88A
:105060000002002AF3D100BF00BF00BF2168143145
:1050700051E8001F41F040002168143141E800026E
:10508000002AF3D100BF0020C1E700000F4B000849
:10509000C34B0008BF4A0008014691F8410021288F
:1050A00028D18868B0F5805F0BD1086948B90A6AD1
:1050B0001088C0F308000B685860086A801C0862FA
:1050C00005E00B6A581C086218780B685860C88C99
:1050D000401E80B2C88458B90868C06820F08000BB
:1050E0000B68D8600868C06840F040000B68D86062
:1050F000002070470220FCE72DE9F84304460D46E6
:1051000017469846089E31E0701C70B3FDF738FFD3
:10511000A0EB0800B04200D816B90320BDE8F88320
:105120002068C06800F00400F8B1802D1ED0402D2A
:105130001CD020680068C0F3C000B0B100BF0020E0
:10514000009020680068009020684068009000BFD0
:1051500000BF2046FFF747FD0820606400BF002025
:1051600084F8400000BF0120D8E7FFE7206800680E
:105170002840A84201D1012000E00020B842C3D05D
:105180000020CBE710B50248FEF730FF10BD00004D
:10519000A403002010B50248FEF728FF10BD000050
:1051A000EC03002000BFFEE710B5044622461021A4
:1051B0000148FDF7DFFE10BD001C024010B504469B
:1051C000224620210148FDF7D5FE10BD001C0240FB
:1051D00010B50446224604210148FDF7CBFE10BD60
:1051E000001C024010B50446224608210148FDF784
:1051F000C1FE10BD001C0240F0B587B006460C464B
:1052000017461D46019400200290039004900595D6
:105210006B463A4601A93046FCF77DFE07B0F0BD6B
:1052200010B5FDF7B3FE10BD0246164B9A4228D1C9
:105230000C2925D2DFE801F02406080B0E11131605
:10524000191C1E2110481BE00F48801C18E00E4856
:10525000001D15E00C48801D12E00C4810E00B48C2
:10526000801C0DE00948001D0AE00848801D07E089
:10527000074805E00648801C02E00548001D00BF05
:1052800000BF70477C03002048020020400200203D
:1052900050020020024630EE602A71EE602A82EE53
:1052A000223AF0EE431A8B1A02EE103AF8EEC22AB6
:1052B00002EE102AB8EEC22A01EEA22ABDEEC22AE0
:1052C00012EE100A7047B0EE401A431A02EE103A7E
:1052D000F8EEC22A531A02EE103AB8EEC22A82EE53
:1052E000823AF0EE431A70EEC12AB0EE412A01EE86
:1052F000A22AB0EE420A704700B593B0302107A849
:10530000FBF77BF9142102A8FBF777F900BF002017
:1053100001902648006840F0805024490860084603
:10532000006800F08050019000BF00BF00BF002067
:1053300001901F48006840F440401D49086008463D
:10534000006800F44040019000BF00BF01200790BA
:105350000004089002200D9041050E9106210F9146
:10536000B4211091022111910421129107A8FEF796
:10537000C9F808B1FCF7CCFDFDF71CFF08B1FCF73C
:10538000C7FD0F20029002200390002004904FF4EC
:10539000A05005904FF480500690052102A8FDF71B
:1053A0004FFF08B1FCF7B4FD13B000BD4038024018
:1053B0000070004010B50446206838B1A0F201200A
:1053C00048B904F11C00FCF781FC05E004F11C0065
:1053D000FFF744F900E000BF00BF10BDF0B58BB08F
:1053E00007460C4615461E4604F0020080B1E8044C
:1053F0000190E80004F0030140EA41000290F0044B
:105400000390F00004F0030140EA4100049009E039
:1054100068010190A007400F029070010390A0075F
:10542000400F0490E0100690C4F380000590012026
:10543000099000200790012008900E200A9001A9F1
:105440003846FCF70DFE0BB0F0BD70B502461346B2
:1054500058781C7840EA042531B110460C4646784D
:1054600026700678667000BF284670BD70B5044689
:105470000D462146034800F05FFC024800F022FC84
:1054800000BF70BD3403002010B50D480068401CFB
:105490000B49086008230B4A99010B48FFF7ACFE43
:1054A00008230A4A40F2FE310748FFF7A5FE0448E8
:1054B0000068092802D100200149086010BD0000E1
:1054C00098020020480200207C030020580200209F
:1054D00010B52DED028B0446B0EE408AF0EE608AE6
:1054E00004F00100FFF76AFEC4F34000FFF75CFE22
:1054F000C4F38000FFF776FEC4F3C000FFF768FE38
:10550000012121EA141000F077F9012121EA541059
:1055100000F066F9012121EA941000F00FF9012151
:1055200021EAD41000F014F9012121EA142000F03E
:1055300019F9012121EA542000F01EF9012121EA84
:10554000942000F023F9012121EAD42000F028F969
:10555000012121EA143000F02DF9012121EA543013
:1055600000F032F9BDEC028B10BD000070B50446AE
:105570000D462046FDF761F92068406940F00200C1
:10558000216848612068406940F010002168486146
:105590001349206888420FD11248046085620023B5
:1055A0001A4619462046FFF719FF00231A460C2118
:1055B0002046FFF713FF12E00B49206888420ED106
:1055C0000A480460856200231A4670212046FFF7CE
:1055D00005FF00231A467C212046FFF7FFFE70BD21
:1055E00000640040D04E002000680040FC4E0020C7
:1055F000374B02689A4203D1364A1060516066E028
:105600000268B2F1804F03D1334A106051605EE00E
:10561000324B02689A4203D1314A1060516056E021
:10562000304B02689A4203D12F4A106051604EE01D
:105630002E4B02689A4203D12D4A1060516046E019
:105640002C4B02689A4203D12B4A106051603EE015
:105650002A4B02689A4203D1294A1060516036E011
:10566000284B02689A4203D1274A106051602EE00D
:10567000264B02689A4203D1254A1060516026E009
:10568000244B02689A4203D1234A106051601EE005
:10569000224B02689A4203D1214A1060516016E001
:1056A000204B02689A4203D11F4A106051600EE0FD
:1056B0001E4B02689A4203D11D4A1060516006E0F9
:1056C0001C4B02689A4202D11B4A1060516070471D
:1056D000000001409C020020A402002000040040C1
:1056E000AC02002000080040B4020020000C004082
:1056F000BC02002000100040C40200200014004042
:10570000CC02002000040140D402002000400140EF
:10571000DC02002000440140E40200200048014077
:10572000EC02002000180040F4020020001C0040A1
:10573000FC020020002000400403002010B50446B5
:10574000224602210148FDF715FC10BD0018024059
:1057500010B50446224604210148FDF70BFC10BD9C
:105760000018024010B50446224608210148FDF702
:1057700001FC10BD0018024010B50446224610215D
:105780000148FDF7F7FB10BD0018024010B50446B4
:10579000224620210148FDF7EDFB10BD0018024014
:1057A00010B50446224640210148FDF7E3FB10BD39
:1057B0000018024010B50446224680210148FDF73A
:1057C000D9FB10BD0018024010B5044622464FF424
:1057D00080710248FDF7CEFB10BD000000180240AA
:1057E00010B5044622464FF480410248FDF7C2FB43
:1057F00010BD00000014024010B5044622464FF4CC
:1058000000610248FDF7B6FB10BD00000010024029
:1058100070B504460D4616464749206888420DD1AA
:1058200046480460C0F80852A0F80462B0F80422A8
:1058300000F582712046FEF7DAFA7CE040492068E4
:1058400088420DD13F480460C0F80852A0F80462B5
:10585000B0F8042200F582712046FEF7C8FA6AE02B
:105860003949206888420DD138480460C0F8085290
:10587000A0F80462B0F8042200F582712046FEF719
:10588000B6FA58E03249206888420DD131480460A8
:10589000C0F80852A0F80462B0F8042200F5827142
:1058A0002046FEF7A4FA46E02B49206888420DD135
:1058B0002A480460C0F80852A0F80462B0F8042234
:1058C00000F582712046FEF792FA34E02449206800
:1058D00088420DD123480460C0F80852A0F8046241
:1058E000B0F8042200F582712046FEF780FA22E02B
:1058F0001D49206888420DD11C480460C0F8085238
:10590000A0F80462B0F8042200F582712046FEF788
:105910006EFA10E01649206888420CD115480460E0
:10592000C0F80852A0F80462B0F8042200F58271B1
:105930002046FEF75CFA70BD00100140284F0020A1
:1059400000440040345100200048004040530020F3
:10595000004C00404C55002000500040585700209B
:10596000001401406459002000780040705B002062
:10597000007C00407C5D002090ED370A704790ED80
:105980003B0A704780ED3B0A7047000030B550F885
:10599000B83F5B1C0360038903824B780C7843EAB1
:1059A00004230381CB788C7843EA04231BB2438120
:1059B0004B790C7943EA04231BB283818B79C38131
:1059C0000389048AB8381B1B1AB212F5805F05DA06
:1059D000D0F8D0305B1CC0F8D03007E0B2F5805F63
:1059E00004DDD0F8D0305B1EC0F8D030AC30838AF4
:1059F0000589446A04FB0533036290ED080AF8EE5A
:105A0000C00A038900EE103AB8EE400A80EE801A10
:105A1000B0EE000A21EE000ADFED130A20EE200AA4
:105A2000D0ED000A80EE201A80ED0B1AB0F9163086
:105A300000EE103AB8EEC00ADFED0C0A20EE200AA4
:105A4000D0ED000A80EE201A80ED0C1AB0F9183063
:105A500000EE103AB8EEC00A80ED0D0A837E80F8A1
:105A60003830AC3830BD0000DB0F49405077D63DB0
:105A700010B52DED028B044694F8E50030B10128F5
:105A800018D002282AD003287BD145E094ED3C0AA7
:105A9000D4ED2C1A80EE211AB4F8B60000EE100AEC
:105AA000B8EE400A21EE000AF0EE400A204600F06F
:105AB000B7F86CE094ED3C0AD4ED2C1A80EE211A74
:105AC000B4F8B60000EE100AB8EE400A21EE000A63
:105AD000F0EE400A204600F0A3F858E0D4ED3B0A6F
